{
  "contractName": "AAA",
  "abi": [
    {
      "anonymous": false,
      "inputs": [
        {
          "indexed": false,
          "internalType": "address",
          "name": "previousAdmin",
          "type": "address"
        },
        {
          "indexed": false,
          "internalType": "address",
          "name": "newAdmin",
          "type": "address"
        }
      ],
      "name": "AdminChanged",
      "type": "event"
    },
    {
      "anonymous": false,
      "inputs": [
        {
          "indexed": true,
          "internalType": "address",
          "name": "owner",
          "type": "address"
        },
        {
          "indexed": true,
          "internalType": "address",
          "name": "spender",
          "type": "address"
        },
        {
          "indexed": false,
          "internalType": "uint256",
          "name": "value",
          "type": "uint256"
        }
      ],
      "name": "Approval",
      "type": "event"
    },
    {
      "anonymous": false,
      "inputs": [
        {
          "indexed": true,
          "internalType": "address",
          "name": "beacon",
          "type": "address"
        }
      ],
      "name": "BeaconUpgraded",
      "type": "event"
    },
    {
      "anonymous": false,
      "inputs": [
        {
          "indexed": true,
          "internalType": "address",
          "name": "previousOwner",
          "type": "address"
        },
        {
          "indexed": true,
          "internalType": "address",
          "name": "newOwner",
          "type": "address"
        }
      ],
      "name": "OwnershipTransferred",
      "type": "event"
    },
    {
      "anonymous": false,
      "inputs": [
        {
          "indexed": true,
          "internalType": "address",
          "name": "from",
          "type": "address"
        },
        {
          "indexed": true,
          "internalType": "address",
          "name": "to",
          "type": "address"
        },
        {
          "indexed": false,
          "internalType": "uint256",
          "name": "value",
          "type": "uint256"
        }
      ],
      "name": "Transfer",
      "type": "event"
    },
    {
      "anonymous": false,
      "inputs": [
        {
          "indexed": true,
          "internalType": "address",
          "name": "implementation",
          "type": "address"
        }
      ],
      "name": "Upgraded",
      "type": "event"
    },
    {
      "inputs": [
        {
          "internalType": "address",
          "name": "owner",
          "type": "address"
        },
        {
          "internalType": "address",
          "name": "spender",
          "type": "address"
        }
      ],
      "name": "allowance",
      "outputs": [
        {
          "internalType": "uint256",
          "name": "",
          "type": "uint256"
        }
      ],
      "stateMutability": "view",
      "type": "function"
    },
    {
      "inputs": [
        {
          "internalType": "address",
          "name": "spender",
          "type": "address"
        },
        {
          "internalType": "uint256",
          "name": "amount",
          "type": "uint256"
        }
      ],
      "name": "approve",
      "outputs": [
        {
          "internalType": "bool",
          "name": "",
          "type": "bool"
        }
      ],
      "stateMutability": "nonpayable",
      "type": "function"
    },
    {
      "inputs": [
        {
          "internalType": "address",
          "name": "account",
          "type": "address"
        }
      ],
      "name": "balanceOf",
      "outputs": [
        {
          "internalType": "uint256",
          "name": "",
          "type": "uint256"
        }
      ],
      "stateMutability": "view",
      "type": "function"
    },
    {
      "inputs": [],
      "name": "decimals",
      "outputs": [
        {
          "internalType": "uint8",
          "name": "",
          "type": "uint8"
        }
      ],
      "stateMutability": "view",
      "type": "function"
    },
    {
      "inputs": [
        {
          "internalType": "address",
          "name": "spender",
          "type": "address"
        },
        {
          "internalType": "uint256",
          "name": "subtractedValue",
          "type": "uint256"
        }
      ],
      "name": "decreaseAllowance",
      "outputs": [
        {
          "internalType": "bool",
          "name": "",
          "type": "bool"
        }
      ],
      "stateMutability": "nonpayable",
      "type": "function"
    },
    {
      "inputs": [
        {
          "internalType": "address",
          "name": "spender",
          "type": "address"
        },
        {
          "internalType": "uint256",
          "name": "addedValue",
          "type": "uint256"
        }
      ],
      "name": "increaseAllowance",
      "outputs": [
        {
          "internalType": "bool",
          "name": "",
          "type": "bool"
        }
      ],
      "stateMutability": "nonpayable",
      "type": "function"
    },
    {
      "inputs": [],
      "name": "name",
      "outputs": [
        {
          "internalType": "string",
          "name": "",
          "type": "string"
        }
      ],
      "stateMutability": "view",
      "type": "function"
    },
    {
      "inputs": [],
      "name": "owner",
      "outputs": [
        {
          "internalType": "address",
          "name": "",
          "type": "address"
        }
      ],
      "stateMutability": "view",
      "type": "function"
    },
    {
      "inputs": [],
      "name": "renounceOwnership",
      "outputs": [],
      "stateMutability": "nonpayable",
      "type": "function"
    },
    {
      "inputs": [],
      "name": "symbol",
      "outputs": [
        {
          "internalType": "string",
          "name": "",
          "type": "string"
        }
      ],
      "stateMutability": "view",
      "type": "function"
    },
    {
      "inputs": [],
      "name": "totalSupply",
      "outputs": [
        {
          "internalType": "uint256",
          "name": "",
          "type": "uint256"
        }
      ],
      "stateMutability": "view",
      "type": "function"
    },
    {
      "inputs": [
        {
          "internalType": "address",
          "name": "recipient",
          "type": "address"
        },
        {
          "internalType": "uint256",
          "name": "amount",
          "type": "uint256"
        }
      ],
      "name": "transfer",
      "outputs": [
        {
          "internalType": "bool",
          "name": "",
          "type": "bool"
        }
      ],
      "stateMutability": "nonpayable",
      "type": "function"
    },
    {
      "inputs": [
        {
          "internalType": "address",
          "name": "sender",
          "type": "address"
        },
        {
          "internalType": "address",
          "name": "recipient",
          "type": "address"
        },
        {
          "internalType": "uint256",
          "name": "amount",
          "type": "uint256"
        }
      ],
      "name": "transferFrom",
      "outputs": [
        {
          "internalType": "bool",
          "name": "",
          "type": "bool"
        }
      ],
      "stateMutability": "nonpayable",
      "type": "function"
    },
    {
      "inputs": [
        {
          "internalType": "address",
          "name": "newOwner",
          "type": "address"
        }
      ],
      "name": "transferOwnership",
      "outputs": [],
      "stateMutability": "nonpayable",
      "type": "function"
    },
    {
      "inputs": [
        {
          "internalType": "address",
          "name": "newImplementation",
          "type": "address"
        }
      ],
      "name": "upgradeTo",
      "outputs": [],
      "stateMutability": "nonpayable",
      "type": "function"
    },
    {
      "inputs": [
        {
          "internalType": "address",
          "name": "newImplementation",
          "type": "address"
        },
        {
          "internalType": "bytes",
          "name": "data",
          "type": "bytes"
        }
      ],
      "name": "upgradeToAndCall",
      "outputs": [],
      "stateMutability": "payable",
      "type": "function"
    },
    {
      "inputs": [],
      "name": "initialize",
      "outputs": [],
      "stateMutability": "nonpayable",
      "type": "function"
    }
  ],
  "bytecode": "0x608060405234801561001057600080fd5b50612cef806100206000396000f3fe6080604052600436106100fe5760003560e01c806370a082311161009557806395d89b411161006457806395d89b4114610316578063a457c2d714610341578063a9059cbb1461037e578063dd62ed3e146103bb578063f2fde38b146103f8576100fe565b806370a0823114610280578063715018a6146102bd5780638129fc1c146102d45780638da5cb5b146102eb576100fe565b8063313ce567116100d1578063313ce567146101d35780633659cfe6146101fe57806339509351146102275780634f1ef28614610264576100fe565b806306fdde0314610103578063095ea7b31461012e57806318160ddd1461016b57806323b872dd14610196575b600080fd5b34801561010f57600080fd5b50610118610421565b60405161012591906121f8565b60405180910390f35b34801561013a57600080fd5b5061015560048036038101906101509190611edf565b6104b3565b60405161016291906121dd565b60405180910390f35b34801561017757600080fd5b506101806104d1565b60405161018d91906123da565b60405180910390f35b3480156101a257600080fd5b506101bd60048036038101906101b89190611e3c565b6104db565b6040516101ca91906121dd565b60405180910390f35b3480156101df57600080fd5b506101e86105d3565b6040516101f591906123f5565b60405180910390f35b34801561020a57600080fd5b5061022560048036038101906102209190611dd7565b6105dc565b005b34801561023357600080fd5b5061024e60048036038101906102499190611edf565b610603565b60405161025b91906121dd565b60405180910390f35b61027e60048036038101906102799190611e8b565b6106af565b005b34801561028c57600080fd5b506102a760048036038101906102a29190611dd7565b6106c8565b6040516102b491906123da565b60405180910390f35b3480156102c957600080fd5b506102d2610711565b005b3480156102e057600080fd5b506102e9610799565b005b3480156102f757600080fd5b50610300610914565b60405161030d91906121c2565b60405180910390f35b34801561032257600080fd5b5061032b61093e565b60405161033891906121f8565b60405180910390f35b34801561034d57600080fd5b5061036860048036038101906103639190611edf565b6109d0565b60405161037591906121dd565b60405180910390f35b34801561038a57600080fd5b506103a560048036038101906103a09190611edf565b610abb565b6040516103b291906121dd565b60405180910390f35b3480156103c757600080fd5b506103e260048036038101906103dd9190611e00565b610ad9565b6040516103ef91906123da565b60405180910390f35b34801561040457600080fd5b5061041f600480360381019061041a9190611dd7565b610b60565b005b60606036805461043090612750565b80601f016020809104026020016040519081016040528092919081815260200182805461045c90612750565b80156104a95780601f1061047e576101008083540402835291602001916104a9565b820191906000526020600020905b81548152906001019060200180831161048c57829003601f168201915b5050505050905090565b60006104c76104c0610c58565b8484610c60565b6001905092915050565b6000603554905090565b60006104e8848484610e2b565b6000603460008673ffffffffffffffffffffffffffffffffffffffff1673ffffffffffffffffffffffffffffffffffffffff1681526020019081526020016000206000610533610c58565b73ffffffffffffffffffffffffffffffffffffffff1673ffffffffffffffffffffffffffffffffffffffff168152602001908152602001600020549050828110156105b3576040517f08c379a00000000000000000000000000000000000000000000000000000000081526004016105aa906122fa565b60405180910390fd5b6105c7856105bf610c58565b858403610c60565b60019150509392505050565b60006012905090565b6105e5816110af565b6106008160405180602001604052806000815250600061112e565b50565b60006106a5610610610c58565b84846034600061061e610c58565b73ffffffffffffffffffffffffffffffffffffffff1673ffffffffffffffffffffffffffffffffffffffff16815260200190815260200160002060008873ffffffffffffffffffffffffffffffffffffffff1673ffffffffffffffffffffffffffffffffffffffff168152602001908152602001600020546106a09190612498565b610c60565b6001905092915050565b6106b8826110af565b6106c48282600161112e565b5050565b6000603360008373ffffffffffffffffffffffffffffffffffffffff1673ffffffffffffffffffffffffffffffffffffffff168152602001908152602001600020549050919050565b610719610c58565b73ffffffffffffffffffffffffffffffffffffffff16610737610914565b73ffffffffffffffffffffffffffffffffffffffff161461078d576040517f08c379a00000000000000000000000000000000000000000000000000000000081526004016107849061231a565b60405180910390fd5b61079760006112ff565b565b600060019054906101000a900460ff16806107bf575060008054906101000a900460ff16155b6107fe576040517f08c379a00000000000000000000000000000000000000000000000000000000081526004016107f5906122ba565b60405180910390fd5b60008060019054906101000a900460ff16159050801561084e576001600060016101000a81548160ff02191690831515021790555060016000806101000a81548160ff0219169083151502179055505b6108c26040518060400160405280600e81526020017f436f696e20342042657474696e670000000000000000000000000000000000008152506040518060400160405280600381526020017f41414100000000000000000000000000000000000000000000000000000000008152506113c5565b6108ca6114b2565b6108f0336012600a6108dc9190612541565b631017df806108eb919061265f565b61159b565b80156109115760008060016101000a81548160ff0219169083151502179055505b50565b600060c960009054906101000a900473ffffffffffffffffffffffffffffffffffffffff16905090565b60606037805461094d90612750565b80601f016020809104026020016040519081016040528092919081815260200182805461097990612750565b80156109c65780601f1061099b576101008083540402835291602001916109c6565b820191906000526020600020905b8154815290600101906020018083116109a957829003601f168201915b5050505050905090565b600080603460006109df610c58565b73ffffffffffffffffffffffffffffffffffffffff1673ffffffffffffffffffffffffffffffffffffffff16815260200190815260200160002060008573ffffffffffffffffffffffffffffffffffffffff1673ffffffffffffffffffffffffffffffffffffffff16815260200190815260200160002054905082811015610a9c576040517f08c379a0000000000000000000000000000000000000000000000000000000008152600401610a939061239a565b60405180910390fd5b610ab0610aa7610c58565b85858403610c60565b600191505092915050565b6000610acf610ac8610c58565b8484610e2b565b6001905092915050565b6000603460008473ffffffffffffffffffffffffffffffffffffffff1673ffffffffffffffffffffffffffffffffffffffff16815260200190815260200160002060008373ffffffffffffffffffffffffffffffffffffffff1673ffffffffffffffffffffffffffffffffffffffff16815260200190815260200160002054905092915050565b610b68610c58565b73ffffffffffffffffffffffffffffffffffffffff16610b86610914565b73ffffffffffffffffffffffffffffffffffffffff1614610bdc576040517f08c379a0000000000000000000000000000000000000000000000000000000008152600401610bd39061231a565b60405180910390fd5b600073ffffffffffffffffffffffffffffffffffffffff168173ffffffffffffffffffffffffffffffffffffffff161415610c4c576040517f08c379a0000000000000000000000000000000000000000000000000000000008152600401610c439061225a565b60405180910390fd5b610c55816112ff565b50565b600033905090565b600073ffffffffffffffffffffffffffffffffffffffff168373ffffffffffffffffffffffffffffffffffffffff161415610cd0576040517f08c379a0000000000000000000000000000000000000000000000000000000008152600401610cc79061237a565b60405180910390fd5b600073ffffffffffffffffffffffffffffffffffffffff168273ffffffffffffffffffffffffffffffffffffffff161415610d40576040517f08c379a0000000000000000000000000000000000000000000000000000000008152600401610d379061227a565b60405180910390fd5b80603460008573ffffffffffffffffffffffffffffffffffffffff1673ffffffffffffffffffffffffffffffffffffffff16815260200190815260200160002060008473ffffffffffffffffffffffffffffffffffffffff1673ffffffffffffffffffffffffffffffffffffffff168152602001908152602001600020819055508173ffffffffffffffffffffffffffffffffffffffff168373ffffffffffffffffffffffffffffffffffffffff167f8c5be1e5ebec7d5bd14f71427d1e84f3dd0314c0f7b2291e5b200ac8c7c3b92583604051610e1e91906123da565b60405180910390a3505050565b600073ffffffffffffffffffffffffffffffffffffffff168373ffffffffffffffffffffffffffffffffffffffff161415610e9b576040517f08c379a0000000000000000000000000000000000000000000000000000000008152600401610e929061235a565b60405180910390fd5b600073ffffffffffffffffffffffffffffffffffffffff168273ffffffffffffffffffffffffffffffffffffffff161415610f0b576040517f08c379a0000000000000000000000000000000000000000000000000000000008152600401610f029061221a565b60405180910390fd5b610f168383836116fc565b6000603360008573ffffffffffffffffffffffffffffffffffffffff1673ffffffffffffffffffffffffffffffffffffffff16815260200190815260200160002054905081811015610f9d576040517f08c379a0000000000000000000000000000000000000000000000000000000008152600401610f949061229a565b60405180910390fd5b818103603360008673ffffffffffffffffffffffffffffffffffffffff1673ffffffffffffffffffffffffffffffffffffffff1681526020019081526020016000208190555081603360008573ffffffffffffffffffffffffffffffffffffffff1673ffffffffffffffffffffffffffffffffffffffff16815260200190815260200160002060008282546110329190612498565b925050819055508273ffffffffffffffffffffffffffffffffffffffff168473ffffffffffffffffffffffffffffffffffffffff167fddf252ad1be2c89b69c2b068fc378daa952ba7f163c4a11628f55a4df523b3ef8460405161109691906123da565b60405180910390a36110a9848484611701565b50505050565b6110b7610c58565b73ffffffffffffffffffffffffffffffffffffffff166110d5610914565b73ffffffffffffffffffffffffffffffffffffffff161461112b576040517f08c379a00000000000000000000000000000000000000000000000000000000081526004016111229061231a565b60405180910390fd5b50565b6000611138611706565b90506111438461175d565b6000835111806111505750815b156111615761115f8484611816565b505b600061118f7f4910fdfa16fed3260ed0e7147f7cc6da11a60208b5b9406d12a635614ffd914360001b6118fa565b90508060000160009054906101000a900460ff166112f85760018160000160006101000a81548160ff02191690831515021790555061125b85836040516024016111d991906121c2565b6040516020818303038152906040527f3659cfe6000000000000000000000000000000000000000000000000000000007bffffffffffffffffffffffffffffffffffffffffffffffffffffffff19166020820180517bffffffffffffffffffffffffffffffffffffffffffffffffffffffff8381831617835250505050611816565b5060008160000160006101000a81548160ff021916908315150217905550611281611706565b73ffffffffffffffffffffffffffffffffffffffff168273ffffffffffffffffffffffffffffffffffffffff16146112ee576040517f08c379a00000000000000000000000000000000000000000000000000000000081526004016112e59061223a565b60405180910390fd5b6112f785611904565b5b5050505050565b600060c960009054906101000a900473ffffffffffffffffffffffffffffffffffffffff1690508160c960006101000a81548173ffffffffffffffffffffffffffffffffffffffff021916908373ffffffffffffffffffffffffffffffffffffffff1602179055508173ffffffffffffffffffffffffffffffffffffffff168173ffffffffffffffffffffffffffffffffffffffff167f8be0079c531659141344cd1fd0a4f28419497f9722a3daafe3b4186f6b6457e060405160405180910390a35050565b600060019054906101000a900460ff16806113eb575060008054906101000a900460ff16155b61142a576040517f08c379a0000000000000000000000000000000000000000000000000000000008152600401611421906122ba565b60405180910390fd5b60008060019054906101000a900460ff16159050801561147a576001600060016101000a81548160ff02191690831515021790555060016000806101000a81548160ff0219169083151502179055505b611482611953565b61148c8383611a2c565b80156114ad5760008060016101000a81548160ff0219169083151502179055505b505050565b600060019054906101000a900460ff16806114d8575060008054906101000a900460ff16155b611517576040517f08c379a000000000000000000000000000000000000000000000000000000000815260040161150e906122ba565b60405180910390fd5b60008060019054906101000a900460ff161590508015611567576001600060016101000a81548160ff02191690831515021790555060016000806101000a81548160ff0219169083151502179055505b61156f611953565b611577611b35565b80156115985760008060016101000a81548160ff0219169083151502179055505b50565b600073ffffffffffffffffffffffffffffffffffffffff168273ffffffffffffffffffffffffffffffffffffffff16141561160b576040517f08c379a0000000000000000000000000000000000000000000000000000000008152600401611602906123ba565b60405180910390fd5b611617600083836116fc565b80603560008282546116299190612498565b9250508190555080603360008473ffffffffffffffffffffffffffffffffffffffff1673ffffffffffffffffffffffffffffffffffffffff168152602001908152602001600020600082825461167f9190612498565b925050819055508173ffffffffffffffffffffffffffffffffffffffff16600073ffffffffffffffffffffffffffffffffffffffff167fddf252ad1be2c89b69c2b068fc378daa952ba7f163c4a11628f55a4df523b3ef836040516116e491906123da565b60405180910390a36116f860008383611701565b5050565b505050565b505050565b60006117347f360894a13ba1a3210667c828492db98dca3e2076cc3735a920a3ca505d382bbc60001b611c1e565b60000160009054906101000a900473ffffffffffffffffffffffffffffffffffffffff16905090565b61176681611c28565b6117a5576040517f08c379a000000000000000000000000000000000000000000000000000000000815260040161179c906122da565b60405180910390fd5b806117d27f360894a13ba1a3210667c828492db98dca3e2076cc3735a920a3ca505d382bbc60001b611c1e565b60000160006101000a81548173ffffffffffffffffffffffffffffffffffffffff021916908373ffffffffffffffffffffffffffffffffffffffff16021790555050565b606061182183611c28565b611860576040517f08c379a00000000000000000000000000000000000000000000000000000000081526004016118579061233a565b60405180910390fd5b6000808473ffffffffffffffffffffffffffffffffffffffff168460405161188891906121ab565b600060405180830381855af49150503d80600081146118c3576040519150601f19603f3d011682016040523d82523d6000602084013e6118c8565b606091505b50915091506118f08282604051806060016040528060278152602001612c9360279139611c3b565b9250505092915050565b6000819050919050565b61190d8161175d565b8073ffffffffffffffffffffffffffffffffffffffff167fbc7cd75a20ee27fd9adebab32041f755214dbc6bffa90cc0225b39da2e5c2d3b60405160405180910390a250565b600060019054906101000a900460ff1680611979575060008054906101000a900460ff16155b6119b8576040517f08c379a00000000000000000000000000000000000000000000000000000000081526004016119af906122ba565b60405180910390fd5b60008060019054906101000a900460ff161590508015611a08576001600060016101000a81548160ff02191690831515021790555060016000806101000a81548160ff0219169083151502179055505b8015611a295760008060016101000a81548160ff0219169083151502179055505b50565b600060019054906101000a900460ff1680611a52575060008054906101000a900460ff16155b611a91576040517f08c379a0000000000000000000000000000000000000000000000000000000008152600401611a88906122ba565b60405180910390fd5b60008060019054906101000a900460ff161590508015611ae1576001600060016101000a81548160ff02191690831515021790555060016000806101000a81548160ff0219169083151502179055505b8260369080519060200190611af7929190611ca2565b508160379080519060200190611b0e929190611ca2565b508015611b305760008060016101000a81548160ff0219169083151502179055505b505050565b600060019054906101000a900460ff1680611b5b575060008054906101000a900460ff16155b611b9a576040517f08c379a0000000000000000000000000000000000000000000000000000000008152600401611b91906122ba565b60405180910390fd5b60008060019054906101000a900460ff161590508015611bea576001600060016101000a81548160ff02191690831515021790555060016000806101000a81548160ff0219169083151502179055505b611bfa611bf5610c58565b6112ff565b8015611c1b5760008060016101000a81548160ff0219169083151502179055505b50565b6000819050919050565b600080823b905060008111915050919050565b60608315611c4b57829050611c9b565b600083511115611c5e5782518084602001fd5b816040517f08c379a0000000000000000000000000000000000000000000000000000000008152600401611c9291906121f8565b60405180910390fd5b9392505050565b828054611cae90612750565b90600052602060002090601f016020900481019282611cd05760008555611d17565b82601f10611ce957805160ff1916838001178555611d17565b82800160010185558215611d17579182015b82811115611d16578251825591602001919060010190611cfb565b5b509050611d249190611d28565b5090565b5b80821115611d41576000816000905550600101611d29565b5090565b6000611d58611d5384612435565b612410565b905082815260208101848484011115611d7057600080fd5b611d7b84828561270e565b509392505050565b600081359050611d9281612c64565b92915050565b600082601f830112611da957600080fd5b8135611db9848260208601611d45565b91505092915050565b600081359050611dd181612c7b565b92915050565b600060208284031215611de957600080fd5b6000611df784828501611d83565b91505092915050565b60008060408385031215611e1357600080fd5b6000611e2185828601611d83565b9250506020611e3285828601611d83565b9150509250929050565b600080600060608486031215611e5157600080fd5b6000611e5f86828701611d83565b9350506020611e7086828701611d83565b9250506040611e8186828701611dc2565b9150509250925092565b60008060408385031215611e9e57600080fd5b6000611eac85828601611d83565b925050602083013567ffffffffffffffff811115611ec957600080fd5b611ed585828601611d98565b9150509250929050565b60008060408385031215611ef257600080fd5b6000611f0085828601611d83565b9250506020611f1185828601611dc2565b9150509250929050565b611f24816126b9565b82525050565b611f33816126cb565b82525050565b6000611f4482612466565b611f4e818561247c565b9350611f5e81856020860161271d565b80840191505092915050565b6000611f7582612471565b611f7f8185612487565b9350611f8f81856020860161271d565b611f9881612840565b840191505092915050565b6000611fb0602383612487565b9150611fbb8261285e565b604082019050919050565b6000611fd3602f83612487565b9150611fde826128ad565b604082019050919050565b6000611ff6602683612487565b9150612001826128fc565b604082019050919050565b6000612019602283612487565b91506120248261294b565b604082019050919050565b600061203c602683612487565b91506120478261299a565b604082019050919050565b600061205f602e83612487565b915061206a826129e9565b604082019050919050565b6000612082602d83612487565b915061208d82612a38565b604082019050919050565b60006120a5602883612487565b91506120b082612a87565b604082019050919050565b60006120c8602083612487565b91506120d382612ad6565b602082019050919050565b60006120eb602683612487565b91506120f682612aff565b604082019050919050565b600061210e602583612487565b915061211982612b4e565b604082019050919050565b6000612131602483612487565b915061213c82612b9d565b604082019050919050565b6000612154602583612487565b915061215f82612bec565b604082019050919050565b6000612177601f83612487565b915061218282612c3b565b602082019050919050565b612196816126f7565b82525050565b6121a581612701565b82525050565b60006121b78284611f39565b915081905092915050565b60006020820190506121d76000830184611f1b565b92915050565b60006020820190506121f26000830184611f2a565b92915050565b600060208201905081810360008301526122128184611f6a565b905092915050565b6000602082019050818103600083015261223381611fa3565b9050919050565b6000602082019050818103600083015261225381611fc6565b9050919050565b6000602082019050818103600083015261227381611fe9565b9050919050565b600060208201905081810360008301526122938161200c565b9050919050565b600060208201905081810360008301526122b38161202f565b9050919050565b600060208201905081810360008301526122d381612052565b9050919050565b600060208201905081810360008301526122f381612075565b9050919050565b6000602082019050818103600083015261231381612098565b9050919050565b60006020820190508181036000830152612333816120bb565b9050919050565b60006020820190508181036000830152612353816120de565b9050919050565b6000602082019050818103600083015261237381612101565b9050919050565b6000602082019050818103600083015261239381612124565b9050919050565b600060208201905081810360008301526123b381612147565b9050919050565b600060208201905081810360008301526123d38161216a565b9050919050565b60006020820190506123ef600083018461218d565b92915050565b600060208201905061240a600083018461219c565b92915050565b600061241a61242b565b90506124268282612782565b919050565b6000604051905090565b600067ffffffffffffffff8211156124505761244f612811565b5b61245982612840565b9050602081019050919050565b600081519050919050565b600081519050919050565b600081905092915050565b600082825260208201905092915050565b60006124a3826126f7565b91506124ae836126f7565b9250827fffffffffffffffffffffffffffffffffffffffffffffffffffffffffffffffff038211156124e3576124e26127b3565b5b828201905092915050565b6000808291508390505b600185111561253857808604811115612514576125136127b3565b5b60018516156125235780820291505b808102905061253185612851565b94506124f8565b94509492505050565b600061254c826126f7565b915061255783612701565b92506125847fffffffffffffffffffffffffffffffffffffffffffffffffffffffffffffffff848461258c565b905092915050565b60008261259c5760019050612658565b816125aa5760009050612658565b81600181146125c057600281146125ca576125f9565b6001915050612658565b60ff8411156125dc576125db6127b3565b5b8360020a9150848211156125f3576125f26127b3565b5b50612658565b5060208310610133831016604e8410600b841016171561262e5782820a905083811115612629576126286127b3565b5b612658565b61263b84848460016124ee565b92509050818404811115612652576126516127b3565b5b81810290505b9392505050565b600061266a826126f7565b9150612675836126f7565b9250817fffffffffffffffffffffffffffffffffffffffffffffffffffffffffffffffff04831182151516156126ae576126ad6127b3565b5b828202905092915050565b60006126c4826126d7565b9050919050565b60008115159050919050565b600073ffffffffffffffffffffffffffffffffffffffff82169050919050565b6000819050919050565b600060ff82169050919050565b82818337600083830152505050565b60005b8381101561273b578082015181840152602081019050612720565b8381111561274a576000848401525b50505050565b6000600282049050600182168061276857607f821691505b6020821081141561277c5761277b6127e2565b5b50919050565b61278b82612840565b810181811067ffffffffffffffff821117156127aa576127a9612811565b5b80604052505050565b7f4e487b7100000000000000000000000000000000000000000000000000000000600052601160045260246000fd5b7f4e487b7100000000000000000000000000000000000000000000000000000000600052602260045260246000fd5b7f4e487b7100000000000000000000000000000000000000000000000000000000600052604160045260246000fd5b6000601f19601f8301169050919050565b60008160011c9050919050565b7f45524332303a207472616e7366657220746f20746865207a65726f206164647260008201527f6573730000000000000000000000000000000000000000000000000000000000602082015250565b7f45524331393637557067726164653a207570677261646520627265616b73206660008201527f7572746865722075706772616465730000000000000000000000000000000000602082015250565b7f4f776e61626c653a206e6577206f776e657220697320746865207a65726f206160008201527f6464726573730000000000000000000000000000000000000000000000000000602082015250565b7f45524332303a20617070726f766520746f20746865207a65726f20616464726560008201527f7373000000000000000000000000000000000000000000000000000000000000602082015250565b7f45524332303a207472616e7366657220616d6f756e742065786365656473206260008201527f616c616e63650000000000000000000000000000000000000000000000000000602082015250565b7f496e697469616c697a61626c653a20636f6e747261637420697320616c72656160008201527f647920696e697469616c697a6564000000000000000000000000000000000000602082015250565b7f455243313936373a206e657720696d706c656d656e746174696f6e206973206e60008201527f6f74206120636f6e747261637400000000000000000000000000000000000000602082015250565b7f45524332303a207472616e7366657220616d6f756e742065786365656473206160008201527f6c6c6f77616e6365000000000000000000000000000000000000000000000000602082015250565b7f4f776e61626c653a2063616c6c6572206973206e6f7420746865206f776e6572600082015250565b7f416464726573733a2064656c65676174652063616c6c20746f206e6f6e2d636f60008201527f6e74726163740000000000000000000000000000000000000000000000000000602082015250565b7f45524332303a207472616e736665722066726f6d20746865207a65726f20616460008201527f6472657373000000000000000000000000000000000000000000000000000000602082015250565b7f45524332303a20617070726f76652066726f6d20746865207a65726f2061646460008201527f7265737300000000000000000000000000000000000000000000000000000000602082015250565b7f45524332303a2064656372656173656420616c6c6f77616e63652062656c6f7760008201527f207a65726f000000000000000000000000000000000000000000000000000000602082015250565b7f45524332303a206d696e7420746f20746865207a65726f206164647265737300600082015250565b612c6d816126b9565b8114612c7857600080fd5b50565b612c84816126f7565b8114612c8f57600080fd5b5056fe416464726573733a206c6f772d6c6576656c2064656c65676174652063616c6c206661696c6564a26469706673582212202d631985968ce508fe158e846832fd9cf31904fcf1877f0e8ca314c3cb74420264736f6c63430008020033",
  "immutableReferences": {},
  "source": "// SPDX-License-Identifier: MIT\npragma solidity >=0.4.22 <0.9.0;\n\nimport \"@openzeppelin/contracts-upgradeable/proxy/utils/Initializable.sol\";\nimport \"@openzeppelin/contracts-upgradeable/token/ERC20/ERC20Upgradeable.sol\";\nimport \"@openzeppelin/contracts-upgradeable/proxy/utils/UUPSUpgradeable.sol\";\nimport \"@openzeppelin/contracts-upgradeable/access/OwnableUpgradeable.sol\";\n\ncontract AAA is Initializable, ERC20Upgradeable, UUPSUpgradeable, OwnableUpgradeable {\n    function initialize() public initializer {\n        __ERC20_init(\"Coin 4 Betting\", \"AAA\");\n        __Ownable_init();\n        _mint(msg.sender, 270000000 * uint256(10) ** 18);\n    }\n\n    function _authorizeUpgrade(address newImplementation) internal override onlyOwner {}\n}\n//New version\n//pragma solidity <0.9.0;\n//\n//import \"./AAA.sol\";\n//import \"@openzeppelin/contracts-upgradeable/token/ERC20/ERC20Upgradeable.sol\";\n//import \"@openzeppelin/contracts-upgradeable/proxy/utils/Initializable.sol\";\n//import \"@openzeppelin/contracts-upgradeable/proxy/utils/UUPSUpgradeable.sol\";\n//import \"@openzeppelin/contracts-upgradeable/access/OwnableUpgradeable.sol\";\n//\n//contract AAAV2 is AAA {\n//    function version() public pure returns(string memory) {\n//        return \"v2!\";\n//    }\n//}\n// Deploy new version\n//const AAA = artifacts.require(\"AAA\");\n//const AAAV2 = artifacts.require(\"AAAV2\");\n//\n//\n//const { upgradeProxy } = require('@openzeppelin/truffle-upgrades');\n//\n//module.exports = async function (deployer) {\n//    const existing = await AAA.deployed()\n//    const instance = await upgradeProxy(existing.address, AAAV2, {kind: 'uups', deployer: deployer})\n//};",
  "sourcePath": "/Users/bean/IdeaProjects/opencoin/contracts/AAA.sol",
  "compiler": {
    "name": "solc",
    "version": "0.8.2+commit.661d1103.Emscripten.clang"
  },
  "schemaVersion": "3.4.3",
  "updatedAt": "2021-09-03T10:52:44.971Z",
  "devdoc": {
    "kind": "dev",
    "methods": {
      "allowance(address,address)": {
        "details": "See {IERC20-allowance}."
      },
      "approve(address,uint256)": {
        "details": "See {IERC20-approve}. Requirements: - `spender` cannot be the zero address."
      },
      "balanceOf(address)": {
        "details": "See {IERC20-balanceOf}."
      },
      "decimals()": {
        "details": "Returns the number of decimals used to get its user representation. For example, if `decimals` equals `2`, a balance of `505` tokens should be displayed to a user as `5.05` (`505 / 10 ** 2`). Tokens usually opt for a value of 18, imitating the relationship between Ether and Wei. This is the value {ERC20} uses, unless this function is overridden; NOTE: This information is only used for _display_ purposes: it in no way affects any of the arithmetic of the contract, including {IERC20-balanceOf} and {IERC20-transfer}."
      },
      "decreaseAllowance(address,uint256)": {
        "details": "Atomically decreases the allowance granted to `spender` by the caller. This is an alternative to {approve} that can be used as a mitigation for problems described in {IERC20-approve}. Emits an {Approval} event indicating the updated allowance. Requirements: - `spender` cannot be the zero address. - `spender` must have allowance for the caller of at least `subtractedValue`."
      },
      "increaseAllowance(address,uint256)": {
        "details": "Atomically increases the allowance granted to `spender` by the caller. This is an alternative to {approve} that can be used as a mitigation for problems described in {IERC20-approve}. Emits an {Approval} event indicating the updated allowance. Requirements: - `spender` cannot be the zero address."
      },
      "name()": {
        "details": "Returns the name of the token."
      },
      "owner()": {
        "details": "Returns the address of the current owner."
      },
      "renounceOwnership()": {
        "details": "Leaves the contract without owner. It will not be possible to call `onlyOwner` functions anymore. Can only be called by the current owner. NOTE: Renouncing ownership will leave the contract without an owner, thereby removing any functionality that is only available to the owner."
      },
      "symbol()": {
        "details": "Returns the symbol of the token, usually a shorter version of the name."
      },
      "totalSupply()": {
        "details": "See {IERC20-totalSupply}."
      },
      "transfer(address,uint256)": {
        "details": "See {IERC20-transfer}. Requirements: - `recipient` cannot be the zero address. - the caller must have a balance of at least `amount`."
      },
      "transferFrom(address,address,uint256)": {
        "details": "See {IERC20-transferFrom}. Emits an {Approval} event indicating the updated allowance. This is not required by the EIP. See the note at the beginning of {ERC20}. Requirements: - `sender` and `recipient` cannot be the zero address. - `sender` must have a balance of at least `amount`. - the caller must have allowance for ``sender``'s tokens of at least `amount`."
      },
      "transferOwnership(address)": {
        "details": "Transfers ownership of the contract to a new account (`newOwner`). Can only be called by the current owner."
      },
      "upgradeTo(address)": {
        "details": "Upgrade the implementation of the proxy to `newImplementation`. Calls {_authorizeUpgrade}. Emits an {Upgraded} event."
      },
      "upgradeToAndCall(address,bytes)": {
        "details": "Upgrade the implementation of the proxy to `newImplementation`, and subsequently execute the function call encoded in `data`. Calls {_authorizeUpgrade}. Emits an {Upgraded} event."
      }
    },
    "version": 1
  },
  "userdoc": {
    "kind": "user",
    "methods": {},
    "version": 1
  }
}