{
  "contractName": "AAAEth",
  "abi": [
    {
      "anonymous": false,
      "inputs": [
        {
          "indexed": false,
          "internalType": "address",
          "name": "previousAdmin",
          "type": "address"
        },
        {
          "indexed": false,
          "internalType": "address",
          "name": "newAdmin",
          "type": "address"
        }
      ],
      "name": "AdminChanged",
      "type": "event"
    },
    {
      "anonymous": false,
      "inputs": [
        {
          "indexed": true,
          "internalType": "address",
          "name": "beacon",
          "type": "address"
        }
      ],
      "name": "BeaconUpgraded",
      "type": "event"
    },
    {
      "anonymous": false,
      "inputs": [
        {
          "indexed": false,
          "internalType": "address",
          "name": "account",
          "type": "address"
        },
        {
          "indexed": false,
          "internalType": "address",
          "name": "token",
          "type": "address"
        },
        {
          "indexed": false,
          "internalType": "uint256",
          "name": "amount",
          "type": "uint256"
        },
        {
          "indexed": false,
          "internalType": "uint256",
          "name": "rate",
          "type": "uint256"
        }
      ],
      "name": "TokensPurchased",
      "type": "event"
    },
    {
      "anonymous": false,
      "inputs": [
        {
          "indexed": false,
          "internalType": "address",
          "name": "account",
          "type": "address"
        },
        {
          "indexed": false,
          "internalType": "address",
          "name": "token",
          "type": "address"
        },
        {
          "indexed": false,
          "internalType": "uint256",
          "name": "amount",
          "type": "uint256"
        },
        {
          "indexed": false,
          "internalType": "uint256",
          "name": "rate",
          "type": "uint256"
        }
      ],
      "name": "TokensSold",
      "type": "event"
    },
    {
      "anonymous": false,
      "inputs": [
        {
          "indexed": true,
          "internalType": "address",
          "name": "implementation",
          "type": "address"
        }
      ],
      "name": "Upgraded",
      "type": "event"
    },
    {
      "inputs": [],
      "name": "name",
      "outputs": [
        {
          "internalType": "string",
          "name": "",
          "type": "string"
        }
      ],
      "stateMutability": "view",
      "type": "function"
    },
    {
      "inputs": [],
      "name": "rate",
      "outputs": [
        {
          "internalType": "uint256",
          "name": "",
          "type": "uint256"
        }
      ],
      "stateMutability": "view",
      "type": "function"
    },
    {
      "inputs": [],
      "name": "token",
      "outputs": [
        {
          "internalType": "contract IERC20Upgradeable",
          "name": "",
          "type": "address"
        }
      ],
      "stateMutability": "view",
      "type": "function"
    },
    {
      "inputs": [
        {
          "internalType": "address",
          "name": "newImplementation",
          "type": "address"
        }
      ],
      "name": "upgradeTo",
      "outputs": [],
      "stateMutability": "nonpayable",
      "type": "function"
    },
    {
      "inputs": [
        {
          "internalType": "address",
          "name": "newImplementation",
          "type": "address"
        },
        {
          "internalType": "bytes",
          "name": "data",
          "type": "bytes"
        }
      ],
      "name": "upgradeToAndCall",
      "outputs": [],
      "stateMutability": "payable",
      "type": "function"
    },
    {
      "inputs": [
        {
          "internalType": "contract IERC20Upgradeable",
          "name": "_token",
          "type": "address"
        }
      ],
      "name": "initialize",
      "outputs": [],
      "stateMutability": "nonpayable",
      "type": "function"
    },
    {
      "inputs": [],
      "name": "buyTokens",
      "outputs": [],
      "stateMutability": "payable",
      "type": "function"
    },
    {
      "inputs": [
        {
          "internalType": "uint256",
          "name": "_amount",
          "type": "uint256"
        }
      ],
      "name": "sellTokens",
      "outputs": [],
      "stateMutability": "payable",
      "type": "function"
    }
  ],
  "bytecode": "0x608060405234801561001057600080fd5b50611713806100206000396000f3fe60806040526004361061007b5760003560e01c80636c11bcd31161004e5780636c11bcd31461011b578063c4d66de814610137578063d0febe4c14610160578063fc0c546a1461016a5761007b565b806306fdde03146100805780632c4e722e146100ab5780633659cfe6146100d65780634f1ef286146100ff575b600080fd5b34801561008c57600080fd5b50610095610195565b6040516100a2919061115e565b60405180910390f35b3480156100b757600080fd5b506100c0610223565b6040516100cd9190611200565b60405180910390f35b3480156100e257600080fd5b506100fd60048036038101906100f89190610e28565b610229565b005b61011960048036038101906101149190610e51565b610250565b005b61013560048036038101906101309190610ef7565b610269565b005b34801561014357600080fd5b5061015e60048036038101906101599190610ece565b61049d565b005b61016861060c565b005b34801561017657600080fd5b5061017f6107e9565b60405161018c9190611143565b60405180910390f35b606580546101a2906113ee565b80601f01602080910402602001604051908101604052809291908181526020018280546101ce906113ee565b801561021b5780601f106101f05761010080835404028352916020019161021b565b820191906000526020600020905b8154815290600101906020018083116101fe57829003601f168201915b505050505081565b60675481565b6102328161080f565b61024d81604051806020016040528060008152506000610812565b50565b6102598261080f565b61026582826001610812565b5050565b80606660009054906101000a900473ffffffffffffffffffffffffffffffffffffffff1673ffffffffffffffffffffffffffffffffffffffff166370a08231336040518263ffffffff1660e01b81526004016102c59190611083565b60206040518083038186803b1580156102dd57600080fd5b505afa1580156102f1573d6000803e3d6000fd5b505050506040513d601f19601f820116820180604052508101906103159190610f20565b101561032057600080fd5b60006067548261033091906112a3565b90508047101561033f57600080fd5b606660009054906101000a900473ffffffffffffffffffffffffffffffffffffffff1673ffffffffffffffffffffffffffffffffffffffff166323b872dd3330856040518463ffffffff1660e01b815260040161039e9392919061109e565b602060405180830381600087803b1580156103b857600080fd5b505af11580156103cc573d6000803e3d6000fd5b505050506040513d601f19601f820116820180604052508101906103f09190610ea5565b503373ffffffffffffffffffffffffffffffffffffffff166108fc829081150290604051600060405180830381858888f19350505050158015610437573d6000803e3d6000fd5b507f697c42d55a5e1fed3f464ec6f38b32546a0bd368dc8068b065c67566d73f329033606660009054906101000a900473ffffffffffffffffffffffffffffffffffffffff168460675460405161049194939291906110d5565b60405180910390a15050565b600060019054906101000a900460ff16806104c3575060008054906101000a900460ff16155b610502576040517f08c379a00000000000000000000000000000000000000000000000000000000081526004016104f9906111a0565b60405180910390fd5b60008060019054906101000a900460ff161590508015610552576001600060016101000a81548160ff02191690831515021790555060016000806101000a81548160ff0219169083151502179055505b81606660006101000a81548173ffffffffffffffffffffffffffffffffffffffff021916908373ffffffffffffffffffffffffffffffffffffffff16021790555060646067819055506040518060400160405280601981526020017f496e7374616e742045786368616e676520436f6e747261637400000000000000815250606590805190602001906105e6929190610cb4565b5080156106085760008060016101000a81548160ff0219169083151502179055505b5050565b60006067543461061c91906112d4565b905080606660009054906101000a900473ffffffffffffffffffffffffffffffffffffffff1673ffffffffffffffffffffffffffffffffffffffff166370a08231306040518263ffffffff1660e01b815260040161067a9190611083565b60206040518083038186803b15801561069257600080fd5b505afa1580156106a6573d6000803e3d6000fd5b505050506040513d601f19601f820116820180604052508101906106ca9190610f20565b10156106d557600080fd5b606660009054906101000a900473ffffffffffffffffffffffffffffffffffffffff1673ffffffffffffffffffffffffffffffffffffffff1663a9059cbb33836040518363ffffffff1660e01b815260040161073292919061111a565b602060405180830381600087803b15801561074c57600080fd5b505af1158015610760573d6000803e3d6000fd5b505050506040513d601f19601f820116820180604052508101906107849190610ea5565b507f6faf93231a456e552dbc9961f58d9713ee4f2e69d15f1975b050ef0911053a7b33606660009054906101000a900473ffffffffffffffffffffffffffffffffffffffff16836067546040516107de94939291906110d5565b60405180910390a150565b606660009054906101000a900473ffffffffffffffffffffffffffffffffffffffff1681565b50565b600061081c6109e3565b905061082784610a3a565b6000835111806108345750815b15610845576108438484610af3565b505b60006108737f4910fdfa16fed3260ed0e7147f7cc6da11a60208b5b9406d12a635614ffd914360001b610bd7565b90508060000160009054906101000a900460ff166109dc5760018160000160006101000a81548160ff02191690831515021790555061093f85836040516024016108bd9190611083565b6040516020818303038152906040527f3659cfe6000000000000000000000000000000000000000000000000000000007bffffffffffffffffffffffffffffffffffffffffffffffffffffffff19166020820180517bffffffffffffffffffffffffffffffffffffffffffffffffffffffff8381831617835250505050610af3565b5060008160000160006101000a81548160ff0219169083151502179055506109656109e3565b73ffffffffffffffffffffffffffffffffffffffff168273ffffffffffffffffffffffffffffffffffffffff16146109d2576040517f08c379a00000000000000000000000000000000000000000000000000000000081526004016109c990611180565b60405180910390fd5b6109db85610be1565b5b5050505050565b6000610a117f360894a13ba1a3210667c828492db98dca3e2076cc3735a920a3ca505d382bbc60001b610c30565b60000160009054906101000a900473ffffffffffffffffffffffffffffffffffffffff16905090565b610a4381610c3a565b610a82576040517f08c379a0000000000000000000000000000000000000000000000000000000008152600401610a79906111c0565b60405180910390fd5b80610aaf7f360894a13ba1a3210667c828492db98dca3e2076cc3735a920a3ca505d382bbc60001b610c30565b60000160006101000a81548173ffffffffffffffffffffffffffffffffffffffff021916908373ffffffffffffffffffffffffffffffffffffffff16021790555050565b6060610afe83610c3a565b610b3d576040517f08c379a0000000000000000000000000000000000000000000000000000000008152600401610b34906111e0565b60405180910390fd5b6000808473ffffffffffffffffffffffffffffffffffffffff1684604051610b65919061106c565b600060405180830381855af49150503d8060008114610ba0576040519150601f19603f3d011682016040523d82523d6000602084013e610ba5565b606091505b5091509150610bcd82826040518060600160405280602781526020016116b760279139610c4d565b9250505092915050565b6000819050919050565b610bea81610a3a565b8073ffffffffffffffffffffffffffffffffffffffff167fbc7cd75a20ee27fd9adebab32041f755214dbc6bffa90cc0225b39da2e5c2d3b60405160405180910390a250565b6000819050919050565b600080823b905060008111915050919050565b60608315610c5d57829050610cad565b600083511115610c705782518084602001fd5b816040517f08c379a0000000000000000000000000000000000000000000000000000000008152600401610ca4919061115e565b60405180910390fd5b9392505050565b828054610cc0906113ee565b90600052602060002090601f016020900481019282610ce25760008555610d29565b82601f10610cfb57805160ff1916838001178555610d29565b82800160010185558215610d29579182015b82811115610d28578251825591602001919060010190610d0d565b5b509050610d369190610d3a565b5090565b5b80821115610d53576000816000905550600101610d3b565b5090565b6000610d6a610d6584611240565b61121b565b905082815260208101848484011115610d8257600080fd5b610d8d8482856113ac565b509392505050565b600081359050610da48161165a565b92915050565b600081519050610db981611671565b92915050565b600082601f830112610dd057600080fd5b8135610de0848260208601610d57565b91505092915050565b600081359050610df881611688565b92915050565b600081359050610e0d8161169f565b92915050565b600081519050610e228161169f565b92915050565b600060208284031215610e3a57600080fd5b6000610e4884828501610d95565b91505092915050565b60008060408385031215610e6457600080fd5b6000610e7285828601610d95565b925050602083013567ffffffffffffffff811115610e8f57600080fd5b610e9b85828601610dbf565b9150509250929050565b600060208284031215610eb757600080fd5b6000610ec584828501610daa565b91505092915050565b600060208284031215610ee057600080fd5b6000610eee84828501610de9565b91505092915050565b600060208284031215610f0957600080fd5b6000610f1784828501610dfe565b91505092915050565b600060208284031215610f3257600080fd5b6000610f4084828501610e13565b91505092915050565b610f528161132e565b82525050565b6000610f6382611271565b610f6d8185611287565b9350610f7d8185602086016113bb565b80840191505092915050565b610f9281611388565b82525050565b6000610fa38261127c565b610fad8185611292565b9350610fbd8185602086016113bb565b610fc68161150d565b840191505092915050565b6000610fde602f83611292565b9150610fe98261151e565b604082019050919050565b6000611001602e83611292565b915061100c8261156d565b604082019050919050565b6000611024602d83611292565b915061102f826115bc565b604082019050919050565b6000611047602683611292565b91506110528261160b565b604082019050919050565b6110668161137e565b82525050565b60006110788284610f58565b915081905092915050565b60006020820190506110986000830184610f49565b92915050565b60006060820190506110b36000830186610f49565b6110c06020830185610f49565b6110cd604083018461105d565b949350505050565b60006080820190506110ea6000830187610f49565b6110f76020830186610f49565b611104604083018561105d565b611111606083018461105d565b95945050505050565b600060408201905061112f6000830185610f49565b61113c602083018461105d565b9392505050565b60006020820190506111586000830184610f89565b92915050565b600060208201905081810360008301526111788184610f98565b905092915050565b6000602082019050818103600083015261119981610fd1565b9050919050565b600060208201905081810360008301526111b981610ff4565b9050919050565b600060208201905081810360008301526111d981611017565b9050919050565b600060208201905081810360008301526111f98161103a565b9050919050565b6000602082019050611215600083018461105d565b92915050565b6000611225611236565b90506112318282611420565b919050565b6000604051905090565b600067ffffffffffffffff82111561125b5761125a6114de565b5b6112648261150d565b9050602081019050919050565b600081519050919050565b600081519050919050565b600081905092915050565b600082825260208201905092915050565b60006112ae8261137e565b91506112b98361137e565b9250826112c9576112c8611480565b5b828204905092915050565b60006112df8261137e565b91506112ea8361137e565b9250817fffffffffffffffffffffffffffffffffffffffffffffffffffffffffffffffff048311821515161561132357611322611451565b5b828202905092915050565b60006113398261135e565b9050919050565b60008115159050919050565b60006113578261132e565b9050919050565b600073ffffffffffffffffffffffffffffffffffffffff82169050919050565b6000819050919050565b60006113938261139a565b9050919050565b60006113a58261135e565b9050919050565b82818337600083830152505050565b60005b838110156113d95780820151818401526020810190506113be565b838111156113e8576000848401525b50505050565b6000600282049050600182168061140657607f821691505b6020821081141561141a576114196114af565b5b50919050565b6114298261150d565b810181811067ffffffffffffffff82111715611448576114476114de565b5b80604052505050565b7f4e487b7100000000000000000000000000000000000000000000000000000000600052601160045260246000fd5b7f4e487b7100000000000000000000000000000000000000000000000000000000600052601260045260246000fd5b7f4e487b7100000000000000000000000000000000000000000000000000000000600052602260045260246000fd5b7f4e487b7100000000000000000000000000000000000000000000000000000000600052604160045260246000fd5b6000601f19601f8301169050919050565b7f45524331393637557067726164653a207570677261646520627265616b73206660008201527f7572746865722075706772616465730000000000000000000000000000000000602082015250565b7f496e697469616c697a61626c653a20636f6e747261637420697320616c72656160008201527f647920696e697469616c697a6564000000000000000000000000000000000000602082015250565b7f455243313936373a206e657720696d706c656d656e746174696f6e206973206e60008201527f6f74206120636f6e747261637400000000000000000000000000000000000000602082015250565b7f416464726573733a2064656c65676174652063616c6c20746f206e6f6e2d636f60008201527f6e74726163740000000000000000000000000000000000000000000000000000602082015250565b6116638161132e565b811461166e57600080fd5b50565b61167a81611340565b811461168557600080fd5b50565b6116918161134c565b811461169c57600080fd5b50565b6116a88161137e565b81146116b357600080fd5b5056fe416464726573733a206c6f772d6c6576656c2064656c65676174652063616c6c206661696c6564a2646970667358221220b4d5ff1d65879528a28564db39a57f81d6d343d65509fa2788ed2ebf12f4e54b64736f6c63430008020033",
  "immutableReferences": {},
  "source": "// SPDX-License-Identifier: MIT\npragma solidity >=0.4.22 <0.9.0;\n\nimport \"./AAA.sol\";\nimport \"@openzeppelin/contracts-upgradeable/token/ERC20/IERC20Upgradeable.sol\";\nimport \"@openzeppelin/contracts-upgradeable/proxy/utils/Initializable.sol\";\nimport \"@openzeppelin/contracts-upgradeable/proxy/utils/UUPSUpgradeable.sol\";\n\ncontract AAAEth is Initializable, UUPSUpgradeable {\n  string public name;\n  IERC20Upgradeable public token;\n  uint public rate;\n\n  event TokensPurchased(\n    address account,\n    address token,\n    uint amount,\n    uint rate\n  );\n\n  event TokensSold(\n    address account,\n    address token,\n    uint amount,\n    uint rate\n  );\n\n  function initialize(IERC20Upgradeable _token) public initializer {\n    token = _token;\n    rate = 100;\n    name = \"Instant Exchange Contract\";\n  }\n\n  function buyTokens() public payable {\n    // Calculate the number of tokens to buy\n    uint tokenAmount = msg.value * rate;\n\n    // Require that AAAEth has enough tokens\n    require(token.balanceOf(address(this)) >= tokenAmount);\n\n    // Transfer tokens to the user\n    token.transfer(msg.sender, tokenAmount);\n\n    // Emit an event\n    emit TokensPurchased(msg.sender, address(token), tokenAmount, rate);\n  }\n\n  function sellTokens(uint _amount) public payable {\n    // User can't sell more tokens than they have\n    require(token.balanceOf(msg.sender) >= _amount);\n\n    // Calculate the amount of Ether to redeem\n    uint etherAmount = _amount / rate;\n\n    // Require that AAAEth has enough Ether\n    require(address(this).balance >= etherAmount);\n\n    // Perform sale\n    token.transferFrom(msg.sender, address(this), _amount);\n    payable(msg.sender).transfer(etherAmount);\n\n    // Emit an event\n    emit TokensSold(msg.sender, address(token), _amount, rate);\n  }\n\n  function _authorizeUpgrade(address newImplementation) internal override {}\n}\n",
  "sourcePath": "/Users/bean/IdeaProjects/opencoin/contracts/AAAEth.sol",
  "compiler": {
    "name": "solc",
    "version": "0.8.2+commit.661d1103.Emscripten.clang"
  },
  "schemaVersion": "3.4.3",
  "updatedAt": "2021-09-03T10:52:44.995Z",
  "devdoc": {
    "kind": "dev",
    "methods": {
      "upgradeTo(address)": {
        "details": "Upgrade the implementation of the proxy to `newImplementation`. Calls {_authorizeUpgrade}. Emits an {Upgraded} event."
      },
      "upgradeToAndCall(address,bytes)": {
        "details": "Upgrade the implementation of the proxy to `newImplementation`, and subsequently execute the function call encoded in `data`. Calls {_authorizeUpgrade}. Emits an {Upgraded} event."
      }
    },
    "version": 1
  },
  "userdoc": {
    "kind": "user",
    "methods": {},
    "version": 1
  }
}